{
  "_format": "hh-sol-artifact-1",
  "contractName": "OOXXNFT",
  "sourceName": "contracts/OOXXNFT.sol",
  "abi": [
    {
      "anonymous": false,
      "inputs": [
        {
          "indexed": true,
          "internalType": "address",
          "name": "owner",
          "type": "address"
        },
        {
          "indexed": true,
          "internalType": "address",
          "name": "approved",
          "type": "address"
        },
        {
          "indexed": true,
          "internalType": "uint256",
          "name": "tokenId",
          "type": "uint256"
        }
      ],
      "name": "Approval",
      "type": "event"
    },
    {
      "anonymous": false,
      "inputs": [
        {
          "indexed": true,
          "internalType": "address",
          "name": "owner",
          "type": "address"
        },
        {
          "indexed": true,
          "internalType": "address",
          "name": "operator",
          "type": "address"
        },
        {
          "indexed": false,
          "internalType": "bool",
          "name": "approved",
          "type": "bool"
        }
      ],
      "name": "ApprovalForAll",
      "type": "event"
    },
    {
      "anonymous": false,
      "inputs": [
        {
          "indexed": false,
          "internalType": "uint256",
          "name": "gameID",
          "type": "uint256"
        },
        {
          "indexed": false,
          "internalType": "string",
          "name": "info",
          "type": "string"
        },
        {
          "indexed": false,
          "internalType": "address",
          "name": "adr",
          "type": "address"
        }
      ],
      "name": "GameUpdate",
      "type": "event"
    },
    {
      "anonymous": false,
      "inputs": [
        {
          "indexed": true,
          "internalType": "address",
          "name": "previousOwner",
          "type": "address"
        },
        {
          "indexed": true,
          "internalType": "address",
          "name": "newOwner",
          "type": "address"
        }
      ],
      "name": "OwnershipTransferred",
      "type": "event"
    },
    {
      "anonymous": false,
      "inputs": [
        {
          "indexed": true,
          "internalType": "address",
          "name": "from",
          "type": "address"
        },
        {
          "indexed": true,
          "internalType": "address",
          "name": "to",
          "type": "address"
        },
        {
          "indexed": true,
          "internalType": "uint256",
          "name": "tokenId",
          "type": "uint256"
        }
      ],
      "name": "Transfer",
      "type": "event"
    },
    {
      "inputs": [
        {
          "internalType": "address",
          "name": "to",
          "type": "address"
        },
        {
          "internalType": "uint256",
          "name": "tokenId",
          "type": "uint256"
        }
      ],
      "name": "approve",
      "outputs": [],
      "stateMutability": "nonpayable",
      "type": "function"
    },
    {
      "inputs": [
        {
          "internalType": "address",
          "name": "owner",
          "type": "address"
        }
      ],
      "name": "balanceOf",
      "outputs": [
        {
          "internalType": "uint256",
          "name": "",
          "type": "uint256"
        }
      ],
      "stateMutability": "view",
      "type": "function"
    },
    {
      "inputs": [],
      "name": "contractURI",
      "outputs": [
        {
          "internalType": "string",
          "name": "",
          "type": "string"
        }
      ],
      "stateMutability": "view",
      "type": "function"
    },
    {
      "inputs": [],
      "name": "gameLen",
      "outputs": [
        {
          "internalType": "uint256",
          "name": "",
          "type": "uint256"
        }
      ],
      "stateMutability": "view",
      "type": "function"
    },
    {
      "inputs": [
        {
          "internalType": "uint256",
          "name": "tokenId",
          "type": "uint256"
        }
      ],
      "name": "getApproved",
      "outputs": [
        {
          "internalType": "address",
          "name": "",
          "type": "address"
        }
      ],
      "stateMutability": "view",
      "type": "function"
    },
    {
      "inputs": [
        {
          "internalType": "uint256",
          "name": "gameID",
          "type": "uint256"
        }
      ],
      "name": "getGame",
      "outputs": [
        {
          "internalType": "address[9]",
          "name": "",
          "type": "address[9]"
        },
        {
          "internalType": "uint16",
          "name": "",
          "type": "uint16"
        },
        {
          "internalType": "uint16",
          "name": "",
          "type": "uint16"
        },
        {
          "internalType": "bool",
          "name": "",
          "type": "bool"
        },
        {
          "internalType": "uint216",
          "name": "",
          "type": "uint216"
        },
        {
          "internalType": "address",
          "name": "",
          "type": "address"
        }
      ],
      "stateMutability": "view",
      "type": "function"
    },
    {
      "inputs": [
        {
          "internalType": "uint256",
          "name": "gameID",
          "type": "uint256"
        }
      ],
      "name": "getIsEnd",
      "outputs": [
        {
          "internalType": "bool",
          "name": "",
          "type": "bool"
        }
      ],
      "stateMutability": "view",
      "type": "function"
    },
    {
      "inputs": [
        {
          "internalType": "uint256",
          "name": "gameID",
          "type": "uint256"
        }
      ],
      "name": "getPreMark",
      "outputs": [
        {
          "internalType": "bool",
          "name": "",
          "type": "bool"
        }
      ],
      "stateMutability": "view",
      "type": "function"
    },
    {
      "inputs": [
        {
          "internalType": "address",
          "name": "adr",
          "type": "address"
        }
      ],
      "name": "initialize",
      "outputs": [],
      "stateMutability": "nonpayable",
      "type": "function"
    },
    {
      "inputs": [
        {
          "internalType": "address",
          "name": "owner",
          "type": "address"
        },
        {
          "internalType": "address",
          "name": "operator",
          "type": "address"
        }
      ],
      "name": "isApprovedForAll",
      "outputs": [
        {
          "internalType": "bool",
          "name": "",
          "type": "bool"
        }
      ],
      "stateMutability": "view",
      "type": "function"
    },
    {
      "inputs": [],
      "name": "name",
      "outputs": [
        {
          "internalType": "string",
          "name": "",
          "type": "string"
        }
      ],
      "stateMutability": "view",
      "type": "function"
    },
    {
      "inputs": [
        {
          "internalType": "uint8",
          "name": "space",
          "type": "uint8"
        },
        {
          "internalType": "bool",
          "name": "ox",
          "type": "bool"
        },
        {
          "internalType": "uint24",
          "name": "color",
          "type": "uint24"
        }
      ],
      "name": "newGame",
      "outputs": [
        {
          "internalType": "uint256",
          "name": "",
          "type": "uint256"
        }
      ],
      "stateMutability": "nonpayable",
      "type": "function"
    },
    {
      "inputs": [],
      "name": "owner",
      "outputs": [
        {
          "internalType": "address",
          "name": "",
          "type": "address"
        }
      ],
      "stateMutability": "view",
      "type": "function"
    },
    {
      "inputs": [
        {
          "internalType": "uint256",
          "name": "tokenId",
          "type": "uint256"
        }
      ],
      "name": "ownerOf",
      "outputs": [
        {
          "internalType": "address",
          "name": "",
          "type": "address"
        }
      ],
      "stateMutability": "view",
      "type": "function"
    },
    {
      "inputs": [
        {
          "internalType": "uint256",
          "name": "tokenId",
          "type": "uint256"
        },
        {
          "internalType": "uint8",
          "name": "space",
          "type": "uint8"
        },
        {
          "internalType": "bool",
          "name": "ox",
          "type": "bool"
        },
        {
          "internalType": "uint24",
          "name": "color",
          "type": "uint24"
        }
      ],
      "name": "play",
      "outputs": [],
      "stateMutability": "nonpayable",
      "type": "function"
    },
    {
      "inputs": [],
      "name": "renounceOwnership",
      "outputs": [],
      "stateMutability": "nonpayable",
      "type": "function"
    },
    {
      "inputs": [
        {
          "internalType": "address",
          "name": "from",
          "type": "address"
        },
        {
          "internalType": "address",
          "name": "to",
          "type": "address"
        },
        {
          "internalType": "uint256",
          "name": "tokenId",
          "type": "uint256"
        }
      ],
      "name": "safeTransferFrom",
      "outputs": [],
      "stateMutability": "nonpayable",
      "type": "function"
    },
    {
      "inputs": [
        {
          "internalType": "address",
          "name": "from",
          "type": "address"
        },
        {
          "internalType": "address",
          "name": "to",
          "type": "address"
        },
        {
          "internalType": "uint256",
          "name": "tokenId",
          "type": "uint256"
        },
        {
          "internalType": "bytes",
          "name": "_data",
          "type": "bytes"
        }
      ],
      "name": "safeTransferFrom",
      "outputs": [],
      "stateMutability": "nonpayable",
      "type": "function"
    },
    {
      "inputs": [
        {
          "internalType": "address",
          "name": "operator",
          "type": "address"
        },
        {
          "internalType": "bool",
          "name": "approved",
          "type": "bool"
        }
      ],
      "name": "setApprovalForAll",
      "outputs": [],
      "stateMutability": "nonpayable",
      "type": "function"
    },
    {
      "inputs": [
        {
          "internalType": "string",
          "name": "contractURI_",
          "type": "string"
        }
      ],
      "name": "setContractURI",
      "outputs": [],
      "stateMutability": "nonpayable",
      "type": "function"
    },
    {
      "inputs": [
        {
          "internalType": "address",
          "name": "adr",
          "type": "address"
        }
      ],
      "name": "setIconsContract",
      "outputs": [],
      "stateMutability": "nonpayable",
      "type": "function"
    },
    {
      "inputs": [
        {
          "internalType": "uint256",
          "name": "s",
          "type": "uint256"
        }
      ],
      "name": "setSeed",
      "outputs": [],
      "stateMutability": "nonpayable",
      "type": "function"
    },
    {
      "inputs": [
        {
          "internalType": "uint256",
          "name": "s",
          "type": "uint256"
        }
      ],
      "name": "setSeed1",
      "outputs": [],
      "stateMutability": "nonpayable",
      "type": "function"
    },
    {
      "inputs": [
        {
          "internalType": "uint256",
          "name": "s",
          "type": "uint256"
        }
      ],
      "name": "setSeed2",
      "outputs": [],
      "stateMutability": "nonpayable",
      "type": "function"
    },
    {
      "inputs": [
        {
          "internalType": "bytes4",
          "name": "interfaceId",
          "type": "bytes4"
        }
      ],
      "name": "supportsInterface",
      "outputs": [
        {
          "internalType": "bool",
          "name": "",
          "type": "bool"
        }
      ],
      "stateMutability": "view",
      "type": "function"
    },
    {
      "inputs": [],
      "name": "symbol",
      "outputs": [
        {
          "internalType": "string",
          "name": "",
          "type": "string"
        }
      ],
      "stateMutability": "view",
      "type": "function"
    },
    {
      "inputs": [],
      "name": "test_mintIconBasic",
      "outputs": [],
      "stateMutability": "nonpayable",
      "type": "function"
    },
    {
      "inputs": [],
      "name": "test_mintIconToken",
      "outputs": [],
      "stateMutability": "nonpayable",
      "type": "function"
    },
    {
      "inputs": [
        {
          "internalType": "uint256",
          "name": "rand",
          "type": "uint256"
        }
      ],
      "name": "test_mintTokenSplit",
      "outputs": [],
      "stateMutability": "nonpayable",
      "type": "function"
    },
    {
      "inputs": [
        {
          "internalType": "uint256",
          "name": "tokenId",
          "type": "uint256"
        }
      ],
      "name": "tokenURI",
      "outputs": [
        {
          "internalType": "string",
          "name": "",
          "type": "string"
        }
      ],
      "stateMutability": "view",
      "type": "function"
    },
    {
      "inputs": [
        {
          "internalType": "address",
          "name": "from",
          "type": "address"
        },
        {
          "internalType": "address",
          "name": "to",
          "type": "address"
        },
        {
          "internalType": "uint256",
          "name": "tokenId",
          "type": "uint256"
        }
      ],
      "name": "transferFrom",
      "outputs": [],
      "stateMutability": "nonpayable",
      "type": "function"
    },
    {
      "inputs": [
        {
          "internalType": "address",
          "name": "newOwner",
          "type": "address"
        }
      ],
      "name": "transferOwnership",
      "outputs": [],
      "stateMutability": "nonpayable",
      "type": "function"
    }
  ],
  "bytecode": "0x608060405234801561001057600080fd5b5061444c806100206000396000f3fe608060405234801561001057600080fd5b50600436106101f05760003560e01c80638da5cb5b1161010f578063c74abf48116100a2578063dba2132111610071578063dba2132114610421578063e8a3d48514610434578063e985e9c51461043c578063f2fde38b1461047857600080fd5b8063c74abf48146103e0578063c87b56dd146103f3578063d0e9b11214610406578063d70d49331461041957600080fd5b8063a2f77bcc116100de578063a2f77bcc14610382578063b88d4fde146103a7578063c32a50f9146103ba578063c4d66de8146103cd57600080fd5b80638da5cb5b14610343578063938e3d7b1461035457806395d89b4114610367578063a22cb4651461036f57600080fd5b806330bbf0d7116101875780636cf7b793116101565780636cf7b793146102f4578063705dd4231461030757806370a082311461031a578063715018a61461033b57600080fd5b806330bbf0d7146102a857806342842e0e146102bb5780634c10fd16146102ce5780636352211e146102e157600080fd5b806313df7613116101c357806313df7613146102725780631b921ea51461028557806323b872dd1461028d5780632e0a3925146102a057600080fd5b806301ffc9a7146101f557806306fdde031461021d578063081812fc14610232578063095ea7b31461025d575b600080fd5b610208610203366004613adb565b61048b565b60405190151581526020015b60405180910390f35b610225610528565b6040516102149190613b50565b610245610240366004613b63565b6105ba565b6040516001600160a01b039091168152602001610214565b61027061026b366004613b98565b610654565b005b610270610280366004613b63565b610786565b610270610b37565b61027061029b366004613bc2565b610ecc565b610270610f53565b6102706102b6366004613b63565b611103565b6102706102c9366004613bc2565b6111be565b6102706102dc366004613bfe565b6111d9565b6102456102ef366004613b63565b6112b1565b610270610302366004613c4b565b61133c565b610208610315366004613b63565b611b2c565b61032d610328366004613bfe565b611c4e565b604051908152602001610214565b610270611ce8565b6065546001600160a01b0316610245565b610270610362366004613d47565b611d4e565b610225611dc0565b61027061037d366004613d90565b611dcf565b610395610390366004613b63565b611dda565b60405161021496959493929190613dc3565b6102706103b5366004613e3e565b611f24565b6102706103c8366004613b63565b611fac565b6102706103db366004613bfe565b612067565b61032d6103ee366004613eba565b612216565b610225610401366004613b63565b612580565b610270610414366004613b63565b61261d565b60fb5461032d565b61020861042f366004613b63565b6126d8565b6102256127d8565b61020861044a366004613f01565b6001600160a01b03918216600090815260ce6020908152604080832093909416825291909152205460ff1690565b610270610486366004613bfe565b612892565b60006001600160e01b031982167f80ac58cd0000000000000000000000000000000000000000000000000000000014806104ee57506001600160e01b031982167f5b5e139f00000000000000000000000000000000000000000000000000000000145b8061052257507f01ffc9a7000000000000000000000000000000000000000000000000000000006001600160e01b03198316145b92915050565b606060c9805461053790613f2b565b80601f016020809104026020016040519081016040528092919081815260200182805461056390613f2b565b80156105b05780601f10610585576101008083540402835291602001916105b0565b820191906000526020600020905b81548152906001019060200180831161059357829003601f168201915b5050505050905090565b600081815260cb60205260408120546001600160a01b03166106385760405162461bcd60e51b815260206004820152602c60248201527f4552433732313a20617070726f76656420717565727920666f72206e6f6e657860448201526b34b9ba32b73a103a37b5b2b760a11b60648201526084015b60405180910390fd5b50600090815260cd60205260409020546001600160a01b031690565b600061065f826112b1565b9050806001600160a01b0316836001600160a01b031614156106e95760405162461bcd60e51b815260206004820152602160248201527f4552433732313a20617070726f76616c20746f2063757272656e74206f776e6560448201527f7200000000000000000000000000000000000000000000000000000000000000606482015260840161062f565b336001600160a01b03821614806107055750610705813361044a565b6107775760405162461bcd60e51b815260206004820152603860248201527f4552433732313a20617070726f76652063616c6c6572206973206e6f74206f7760448201527f6e6572206e6f7220617070726f76656420666f7220616c6c0000000000000000606482015260840161062f565b6107818383612974565b505050565b600260015414156107d95760405162461bcd60e51b815260206004820152601f60248201527f5265656e7472616e637947756172643a207265656e7472616e742063616c6c00604482015260640161062f565b60026001556065546001600160a01b031633146108385760405162461bcd60e51b815260206004820181905260248201527f4f776e61626c653a2063616c6c6572206973206e6f7420746865206f776e6572604482015260640161062f565b610840613938565b60008060005b60078160ff1610156109175760ff80546040517f964b6e210000000000000000000000000000000000000000000000000000000081526004810188905291831660248301526000916001600160a01b039091169063964b6e2190604401602060405180830381865afa1580156108c0573d6000803e3d6000fd5b505050506040513d601f19601f820116820180604052508101906108e49190613f66565b90506108f18483836129e2565b9350610901838362ffffff612a05565b925050808061090f90613f99565b915050610846565b5060408051610120810182528481526000602082018190529181018290526001606082018190526001600160d81b038416608083015260a0820183905260c08201839052600960e08301819052610100830186905260fb8054928301815590935281519192600c9091027f3e7257b7272bb46d49cd6019b04ddee20da7c0cb13f7c1ec3391291b2ccebabc01916109b091839190613957565b5060208201516009820180546040850151606086015160808701516001600160d81b0316650100000000000264ffffffffff911515640100000000029190911663ffffffff61ffff938416620100000263ffffffff19909516939096169290921792909217939093169290921791909117905560a0820151600a8201805460c085015160e086015160ff16600160d01b0260ff60d01b1965ffffffffffff909216600160a01b027fffffffffffff00000000000000000000000000000000000000000000000000009093166001600160a01b0390951694909417919091171691909117905561010090910151600b9091015560fb547fa3af8a4d60e03eb2a40758af7b71b6e1bf7821246030c895218b2ca5caaccfdf90610ad390600190613fb9565b6040805191825260606020830181905260039083015262195b9960ea1b60808301523382820152519081900360a00190a1610b2d610b196065546001600160a01b031690565b60fb54610b2890600190613fb9565b612a37565b5050600180555050565b60026001541415610b8a5760405162461bcd60e51b815260206004820152601f60248201527f5265656e7472616e637947756172643a207265656e7472616e742063616c6c00604482015260640161062f565b60026001556065546001600160a01b03163314610be95760405162461bcd60e51b815260206004820181905260248201527f4f776e61626c653a2063616c6c6572206973206e6f7420746865206f776e6572604482015260640161062f565b610bf1613938565b60008060005b60078160ff161015610cc15760ff80546040517facae940000000000000000000000000000000000000000000000000000000000815291831660048301526000916001600160a01b039091169063acae940090602401602060405180830381865afa158015610c6a573d6000803e3d6000fd5b505050506040513d601f19601f82011682018060405250810190610c8e9190613f66565b9050610c9b8483836129e2565b9350610cab838362ffffff612a05565b9250508080610cb990613f99565b915050610bf7565b5060408051610120810182528481526000602082018190529181018290526001606082018190526001600160d81b038416608083015260a0820183905260c08201839052600960e08301819052610100830186905260fb8054928301815590935281519192600c9091027f3e7257b7272bb46d49cd6019b04ddee20da7c0cb13f7c1ec3391291b2ccebabc0191610d5a91839190613957565b5060208201516009820180546040850151606086015160808701516001600160d81b0316650100000000000264ffffffffff911515640100000000029190911663ffffffff61ffff938416620100000263ffffffff19909516939096169290921792909217939093169290921791909117905560a0820151600a8201805460c085015160e086015160ff16600160d01b0260ff60d01b1965ffffffffffff909216600160a01b027fffffffffffff00000000000000000000000000000000000000000000000000009093166001600160a01b0390951694909417919091171691909117905561010090910151600b9091015560fb547fa3af8a4d60e03eb2a40758af7b71b6e1bf7821246030c895218b2ca5caaccfdf90610e7d90600190613fb9565b6040805191825260606020830181905260039083015262195b9960ea1b60808301523382820152519081900360a00190a1610ec3610b196065546001600160a01b031690565b50506001805550565b610ed63382612a51565b610f485760405162461bcd60e51b815260206004820152603160248201527f4552433732313a207472616e736665722063616c6c6572206973206e6f74206f60448201527f776e6572206e6f7220617070726f766564000000000000000000000000000000606482015260840161062f565b610781838383612b48565b60026001541415610fa65760405162461bcd60e51b815260206004820152601f60248201527f5265656e7472616e637947756172643a207265656e7472616e742063616c6c00604482015260640161062f565b60026001556065546001600160a01b031633146110055760405162461bcd60e51b815260206004820181905260248201527f4f776e61626c653a2063616c6c6572206973206e6f7420746865206f776e6572604482015260640161062f565b61100d613938565b60008060005b60078160ff161015610cc157600060ff82166110325750612711611048565b61104160ff83166103e8613fd0565b61ffff1690505b60ff546040517f700f77e9000000000000000000000000000000000000000000000000000000008152600481018390526000916001600160a01b03169063700f77e990602401602060405180830381865afa1580156110ab573d6000803e3d6000fd5b505050506040513d601f19601f820116820180604052508101906110cf9190613f66565b90506110dc8584836129e2565b94506110ec848462ffffff612a05565b9350505080806110fb90613f99565b915050611013565b600260015414156111565760405162461bcd60e51b815260206004820152601f60248201527f5265656e7472616e637947756172643a207265656e7472616e742063616c6c00604482015260640161062f565b60026001556065546001600160a01b031633146111b55760405162461bcd60e51b815260206004820181905260248201527f4f776e61626c653a2063616c6c6572206973206e6f7420746865206f776e6572604482015260640161062f565b60fd5560018055565b61078183838360405180602001604052806000815250611f24565b6002600154141561122c5760405162461bcd60e51b815260206004820152601f60248201527f5265656e7472616e637947756172643a207265656e7472616e742063616c6c00604482015260640161062f565b60026001556065546001600160a01b0316331461128b5760405162461bcd60e51b815260206004820181905260248201527f4f776e61626c653a2063616c6c6572206973206e6f7420746865206f776e6572604482015260640161062f565b60ff80546001600160a01b0319166001600160a01b039290921691909117905560018055565b600081815260cb60205260408120546001600160a01b0316806105225760405162461bcd60e51b815260206004820152602960248201527f4552433732313a206f776e657220717565727920666f72206e6f6e657869737460448201527f656e7420746f6b656e0000000000000000000000000000000000000000000000606482015260840161062f565b60fb54841061138d5760405162461bcd60e51b815260206004820152601260248201527f746f6b656e496420697320696e76616c69640000000000000000000000000000604482015260640161062f565b600060fb85815481106113a2576113a2613ffa565b600091825260208220600c9091020191508160ff8616600981106113c8576113c8613ffa565b01546001600160a01b0316146114205760405162461bcd60e51b815260206004820152601360248201527f746865207370616365207761732074616b656e00000000000000000000000000604482015260640161062f565b600981015460ff64010000000090910416151583151514156114845760405162461bcd60e51b815260206004820152600c60248201527f696e76616c6964206d61726b0000000000000000000000000000000000000000604482015260640161062f565b600a8101546001600160a01b0316156114df5760405162461bcd60e51b815260206004820152601060248201527f7468652067616d652077617320656e6400000000000000000000000000000000604482015260640161062f565b600a8101546009600160d01b90910460ff161061153e5760405162461bcd60e51b815260206004820152601060248201527f7468652067616d652077617320656e6400000000000000000000000000000000604482015260640161062f565b338160ff86166009811061155457611554613ffa565b0180546001600160a01b0319166001600160a01b0392909216919091179055821561159f57600981018054600160ff87161b61ffff9081169082161761ffff199091161790556115cc565b600981018054600160ff87161b61ffff9081166201000080840492909216170263ffff0000199091161790555b60098101805464ff00000000191664010000000085151502179055600a81015461161190600160a01b810465ffffffffffff169060ff600160d01b9091041686612d15565b600a8201805465ffffffffffff92909216600160a01b027fffffffffffff000000000000ffffffffffffffffffffffffffffffffffffffff909216919091179055600981015461167a906001600160d81b0365010000000000909104168562ffffff8516612a05565b6009820180546001600160d81b0392909216650100000000000264ffffffffff909216919091179055600a8101546116be9060ff600160d01b909104166001614010565b81600a01601a6101000a81548160ff021916908360ff16021790555060006116e66064612d35565b905060038110156117a95760ff8054604051630c08f1b760e31b815291871660048301526000916001600160a01b03909116906360478db8906024016020604051808303816000875af1158015611741573d6000803e3d6000fd5b505050506040513d601f19601f820116820180604052508101906117659190613f66565b90506117936040518060600160405280603c81526020016143db603c9139888860ff168462ffffff16612e48565b6117a283600b015487836129e2565b600b840155505b600a8201546005600160d01b90910460ff1610611acd576000846117db57600983015462010000900461ffff166117e5565b600983015461ffff165b90506117f081612eaa565b1561187657600a830180546001600160a01b031916339081179091556118169088612a37565b6040805188815260606020820181905260039082015262195b9960ea1b608082015233918101919091527fa3af8a4d60e03eb2a40758af7b71b6e1bf7821246030c895218b2ca5caaccfdf9060a0015b60405180910390a1505050611b26565b600a8301546009600160d01b90910460ff1610611a76576000611899600b612d35565b90506118db6040518060400160405280601b81526020017f746f6b656e49643d25642c2072616e644d696e74546f203d20256400000000008152508983612f50565b600981101561190f5761190a8482600981106118f9576118f9613ffa565b01546001600160a01b031689612a37565b611a1a565b82600914156119cb57600a84015460009061193990600160a01b900465ffffffffffff1682612fb0565b905061199c6040518060400160405280601481526020017f094d696e7420746f2043726561746f723a202573000000000000000000000000815250866000018360ff166009811061198c5761198c613ffa565b01546001600160a01b0316612fd6565b6119c58560ff8316600981106119b4576119b4613ffa565b01546001600160a01b03168a612a37565b50611a1a565b611a106040518060400160405280601881526020017f094d696e7420746f204c61737420706c617965723a2025730000000000000000815250611a0b3390565b612fd6565b611a1a3389612a37565b6040805189815260606020820181905260039082015262195b9960ea1b6080820152338183015290517fa3af8a4d60e03eb2a40758af7b71b6e1bf7821246030c895218b2ca5caaccfdf9181900360a00190a150505050611b26565b604080518881526060602082018190526006908201526575706461746560d01b608082015233918101919091527fa3af8a4d60e03eb2a40758af7b71b6e1bf7821246030c895218b2ca5caaccfdf9060a001611866565b604080518781526060602082018190526006908201526575706461746560d01b6080820152338183015290517fa3af8a4d60e03eb2a40758af7b71b6e1bf7821246030c895218b2ca5caaccfdf9181900360a00190a150505b50505050565b60008060fb8381548110611b4257611b42613ffa565b6000918252602090912060408051610240810190915291600c02018161012081018260098282826020028201915b81546001600160a01b03168152600190910190602001808311611b70575050509183525050600982015461ffff8082166020840152620100008204166040830152640100000000810460ff90811615156060840152650100000000009091046001600160d81b03166080830152600a8301546001600160a01b0380821660a080860191909152600160a01b830465ffffffffffff1660c0860152600160d01b90920490921660e0840152600b90930154610100909201919091529082015191925016151580611c47575060098160e0015160ff1610155b9392505050565b60006001600160a01b038216611ccc5760405162461bcd60e51b815260206004820152602a60248201527f4552433732313a2062616c616e636520717565727920666f7220746865207a6560448201527f726f206164647265737300000000000000000000000000000000000000000000606482015260840161062f565b506001600160a01b0316600090815260cc602052604090205490565b6065546001600160a01b03163314611d425760405162461bcd60e51b815260206004820181905260248201527f4f776e61626c653a2063616c6c6572206973206e6f7420746865206f776e6572604482015260640161062f565b611d4c6000613034565b565b6065546001600160a01b03163314611da85760405162461bcd60e51b815260206004820181905260248201527f4f776e61626c653a2063616c6c6572206973206e6f7420746865206f776e6572604482015260640161062f565b8051611dbc906101009060208401906139af565b5050565b606060ca805461053790613f2b565b611dbc338383613086565b611de2613938565b60008060008060008060fb8881548110611dfe57611dfe613ffa565b6000918252602090912060408051610240810190915291600c02018161012081018260098282826020028201915b81546001600160a01b03168152600190910190602001808311611e2c575050509183525050600982015461ffff808216602080850191909152620100008304909116604080850191909152640100000000830460ff9081161515606080870191909152650100000000009094046001600160d81b0316608080870191909152600a8701546001600160a01b03811660a080890191909152600160a01b820465ffffffffffff1660c0890152600160d01b90910490921660e0870152600b90960154610100909501949094528551918601519086015192860151948601519590930151909d929c50909a50919850919650945092505050565b611f2e3383612a51565b611fa05760405162461bcd60e51b815260206004820152603160248201527f4552433732313a207472616e736665722063616c6c6572206973206e6f74206f60448201527f776e6572206e6f7220617070726f766564000000000000000000000000000000606482015260840161062f565b611b2684848484613155565b60026001541415611fff5760405162461bcd60e51b815260206004820152601f60248201527f5265656e7472616e637947756172643a207265656e7472616e742063616c6c00604482015260640161062f565b60026001556065546001600160a01b0316331461205e5760405162461bcd60e51b815260206004820181905260248201527f4f776e61626c653a2063616c6c6572206973206e6f7420746865206f776e6572604482015260640161062f565b60fc5560018055565b600054610100900460ff166120825760005460ff1615612086565b303b155b6120f85760405162461bcd60e51b815260206004820152602e60248201527f496e697469616c697a61626c653a20636f6e747261637420697320616c72656160448201527f647920696e697469616c697a6564000000000000000000000000000000000000606482015260840161062f565b600054610100900460ff1615801561211a576000805461ffff19166101011790555b6121226131d3565b61216a6040518060400160405280600781526020016613d3d61613919560ca1b8152506040518060400160405280600781526020016613d3d61613919560ca1b81525061323e565b6121726132d0565b61217a613344565b622d89e060fc55634864e5c360fd5563036089ef60fe55604080516101008101825260078152603860208201526101c091810191909152610124606082015260926080820152604960a082015261011160c0820152605460e08201526121e590610101906008613a23565b5060ff80546001600160a01b0319166001600160a01b0384161790558015611dbc576000805461ff00191690555050565b6000612244604051806060016040528060258152602001614376602591398560ff16858562ffffff166133b5565b61224c613938565b33818660ff166009811061226257612262613ffa565b6001600160a01b039092166020929092020152600080851561228e57600160ff88161b82179150612297565b600160ff88161b175b6000806122a46064612d35565b905060058110156123625760ff8054604051630c08f1b760e31b8152918b1660048301526000916001600160a01b03909116906360478db8906024016020604051808303816000875af11580156122ff573d6000803e3d6000fd5b505050506040513d601f19601f820116820180604052508101906123239190613f66565b90506123536040518060600160405280603c81526020016143db603c913960fb5460ff8d1662ffffff8516612e48565b61235e838b836129e2565b9250505b60fb6040518061012001604052808781526020018661ffff1681526020018561ffff1681526020018a151581526020016123a360008d8c62ffffff16612a05565b6001600160d81b031681526000602080830182905260ff8e1660408401526001606084018190526080909301879052845492830185559381529290922081519192600c0201906123f69082906009613957565b5060208201516009820180546040850151606086015160808701516001600160d81b0316650100000000000264ffffffffff911515640100000000029190911663ffffffff61ffff938416620100000263ffffffff19909516939096169290921792909217939093169290921791909117905560a0820151600a8201805460c085015160e086015160ff16600160d01b0260ff60d01b1965ffffffffffff909216600160a01b027fffffffffffff00000000000000000000000000000000000000000000000000009093166001600160a01b0390951694909417919091171691909117905561010090910151600b9091015560fb547fa3af8a4d60e03eb2a40758af7b71b6e1bf7821246030c895218b2ca5caaccfdf9061251990600190613fb9565b604080519182526060602083018190526006908301527f637265617465000000000000000000000000000000000000000000000000000060808301523382820152519081900360a00190a160fb5461257390600190613fb9565b9998505050505050505050565b60ff5460fb80546060926001600160a01b0316916360a58d0691859190829081106125ad576125ad613ffa565b90600052602060002090600c02016040518363ffffffff1660e01b81526004016125d8929190614061565b600060405180830381865afa1580156125f5573d6000803e3d6000fd5b505050506040513d6000823e601f3d908101601f1916820160405261052291908101906140f2565b600260015414156126705760405162461bcd60e51b815260206004820152601f60248201527f5265656e7472616e637947756172643a207265656e7472616e742063616c6c00604482015260640161062f565b60026001556065546001600160a01b031633146126cf5760405162461bcd60e51b815260206004820181905260248201527f4f776e61626c653a2063616c6c6572206973206e6f7420746865206f776e6572604482015260640161062f565b60fe5560018055565b60008060fb83815481106126ee576126ee613ffa565b6000918252602090912060408051610240810190915291600c02018161012081018260098282826020028201915b81546001600160a01b0316815260019091019060200180831161271c575050509183525050600982015461ffff8082166020840152620100008204166040830152640100000000810460ff9081161515606080850191909152650100000000009092046001600160d81b03166080840152600a8401546001600160a01b03811660a0850152600160a01b810465ffffffffffff1660c0850152600160d01b90041660e0830152600b909201546101009091015201519392505050565b606061286e61010080546127eb90613f2b565b80601f016020809104026020016040519081016040528092919081815260200182805461281790613f2b565b80156128645780601f1061283957610100808354040283529160200191612864565b820191906000526020600020905b81548152906001019060200180831161284757829003601f168201915b5050505050613417565b60405160200161287e9190614169565b604051602081830303815290604052905090565b6065546001600160a01b031633146128ec5760405162461bcd60e51b815260206004820181905260248201527f4f776e61626c653a2063616c6c6572206973206e6f7420746865206f776e6572604482015260640161062f565b6001600160a01b0381166129685760405162461bcd60e51b815260206004820152602660248201527f4f776e61626c653a206e6577206f776e657220697320746865207a65726f206160448201527f6464726573730000000000000000000000000000000000000000000000000000606482015260840161062f565b61297181613034565b50565b600081815260cd6020526040902080546001600160a01b0319166001600160a01b03841690811790915581906129a9826112b1565b6001600160a01b03167f8c5be1e5ebec7d5bd14f71427d1e84f3dd0314c0f7b2291e5b200ac8c7c3b92560405160405180910390a45050565b60006129ef8360186141ae565b60ff168262ffffff16901b841790509392505050565b6000612a128360186141ae565b60ff168268ffffffffffffffffff166001600160d81b0316901b841790509392505050565b611dbc8282604051806020016040528060008152506135b4565b600081815260cb60205260408120546001600160a01b0316612aca5760405162461bcd60e51b815260206004820152602c60248201527f4552433732313a206f70657261746f7220717565727920666f72206e6f6e657860448201526b34b9ba32b73a103a37b5b2b760a11b606482015260840161062f565b6000612ad5836112b1565b9050806001600160a01b0316846001600160a01b03161480612b105750836001600160a01b0316612b05846105ba565b6001600160a01b0316145b80612b4057506001600160a01b03808216600090815260ce602090815260408083209388168352929052205460ff165b949350505050565b826001600160a01b0316612b5b826112b1565b6001600160a01b031614612bd75760405162461bcd60e51b815260206004820152602560248201527f4552433732313a207472616e736665722066726f6d20696e636f72726563742060448201527f6f776e6572000000000000000000000000000000000000000000000000000000606482015260840161062f565b6001600160a01b038216612c525760405162461bcd60e51b8152602060048201526024808201527f4552433732313a207472616e7366657220746f20746865207a65726f2061646460448201527f7265737300000000000000000000000000000000000000000000000000000000606482015260840161062f565b612c5d600082612974565b6001600160a01b038316600090815260cc60205260408120805460019290612c86908490613fb9565b90915550506001600160a01b038216600090815260cc60205260408120805460019290612cb49084906141d7565b9091555050600081815260cb602052604080822080546001600160a01b0319166001600160a01b0386811691821790925591518493918716917fddf252ad1be2c89b69c2b068fc378daa952ba7f163c4a11628f55a4df523b3ef91a4505050565b6000612d228360046141ae565b60ff83811691161b841790509392505050565b6000612d766040518060400160405280601281526020017f7468697320697320763120205f7570706572000000000000000000000000000081525083613632565b6000612d83600343614205565b9050600081612d95575060fc54612db5565b8160011415612da7575060fd54612db5565b8160021415612db5575060fe545b43813360fb546040805160208101959095528401929092526bffffffffffffffffffffffff19606091821b1690830152486074830152609482015260b40160408051601f198184030181529190528051602090910120905081612e1c5760fc819055612e3e565b8160011415612e2f5760fd819055612e3e565b8160021415612e3e5760fe8190555b612b408482614205565b611b2684848484604051602401612e629493929190614219565b60408051601f198184030181529190526020810180516001600160e01b03167f08ee56660000000000000000000000000000000000000000000000000000000017905261368c565b6000805b60088160ff161015612f47576101018160ff1660088110612ed157612ed1613ffa565b601091828204019190066002029054906101000a900461ffff1661ffff166101018260ff1660088110612f0657612f06613ffa565b601091828204019190066002029054906101000a900461ffff16841661ffff161415612f355750600192915050565b80612f3f81613f99565b915050612eae565b50600092915050565b610781838383604051602401612f6893929190614248565b60408051601f198184030181529190526020810180516001600160e01b03167f969cdd030000000000000000000000000000000000000000000000000000000017905261368c565b6000612fbd8260046141ae565b60ff168365ffffffffffff16901c600f16905092915050565b611dbc8282604051602401612fec92919061426d565b60408051601f198184030181529190526020810180516001600160e01b03167f319af3330000000000000000000000000000000000000000000000000000000017905261368c565b606580546001600160a01b038381166001600160a01b0319831681179093556040519116919082907f8be0079c531659141344cd1fd0a4f28419497f9722a3daafe3b4186f6b6457e090600090a35050565b816001600160a01b0316836001600160a01b031614156130e85760405162461bcd60e51b815260206004820152601960248201527f4552433732313a20617070726f766520746f2063616c6c657200000000000000604482015260640161062f565b6001600160a01b03838116600081815260ce6020908152604080832094871680845294825291829020805460ff191686151590811790915591519182527f17307eab39ab6107e8899845ad3d59bd9653f200f220920489ca2b5937696c31910160405180910390a3505050565b613160848484612b48565b61316c848484846136ad565b611b265760405162461bcd60e51b815260206004820152603260248201527f4552433732313a207472616e7366657220746f206e6f6e20455243373231526560448201527131b2b4bb32b91034b6b83632b6b2b73a32b960711b606482015260840161062f565b600054610100900460ff16611d4c5760405162461bcd60e51b815260206004820152602b60248201527f496e697469616c697a61626c653a20636f6e7472616374206973206e6f74206960448201526a6e697469616c697a696e6760a81b606482015260840161062f565b600054610100900460ff166132a95760405162461bcd60e51b815260206004820152602b60248201527f496e697469616c697a61626c653a20636f6e7472616374206973206e6f74206960448201526a6e697469616c697a696e6760a81b606482015260840161062f565b81516132bc9060c99060208501906139af565b5080516107819060ca9060208401906139af565b600054610100900460ff1661333b5760405162461bcd60e51b815260206004820152602b60248201527f496e697469616c697a61626c653a20636f6e7472616374206973206e6f74206960448201526a6e697469616c697a696e6760a81b606482015260840161062f565b611d4c33613034565b600054610100900460ff166133af5760405162461bcd60e51b815260206004820152602b60248201527f496e697469616c697a61626c653a20636f6e7472616374206973206e6f74206960448201526a6e697469616c697a696e6760a81b606482015260840161062f565b60018055565b611b26848484846040516024016133cf9493929190614298565b60408051601f198184030181529190526020810180516001600160e01b03167f550e6ef50000000000000000000000000000000000000000000000000000000017905261368c565b805160609080613437575050604080516020810190915260008152919050565b600060036134468360026141d7565b61345091906142c7565b61345b9060046142db565b9050600061346a8260206141d7565b67ffffffffffffffff81111561348257613482613c9a565b6040519080825280601f01601f1916602001820160405280156134ac576020820181803683370190505b509050600060405180606001604052806040815260200161439b604091399050600181016020830160005b86811015613538576003818a01810151603f601282901c8116860151600c83901c8216870151600684901c831688015192909316870151600891821b60ff94851601821b92841692909201901b91160160e01b8352600490920191016134d7565b506003860660018114613552576002811461357e576135a6565b7f3d3d0000000000000000000000000000000000000000000000000000000000006001198301526135a6565b7f3d000000000000000000000000000000000000000000000000000000000000006000198301525b505050918152949350505050565b6135be83836137f6565b6135cb60008484846136ad565b6107815760405162461bcd60e51b815260206004820152603260248201527f4552433732313a207472616e7366657220746f206e6f6e20455243373231526560448201527131b2b4bb32b91034b6b83632b6b2b73a32b960711b606482015260840161062f565b611dbc82826040516024016136489291906142fa565b60408051601f198184030181529190526020810180516001600160e01b03167f9710a9d0000000000000000000000000000000000000000000000000000000001790525b80516a636f6e736f6c652e6c6f67602083016000808483855afa5050505050565b60006001600160a01b0384163b156137eb57604051630a85bd0160e11b81526001600160a01b0385169063150b7a02906136f190339089908890889060040161431c565b6020604051808303816000875af192505050801561372c575060408051601f3d908101601f1916820190925261372991810190614358565b60015b6137d1573d80801561375a576040519150601f19603f3d011682016040523d82523d6000602084013e61375f565b606091505b5080516137c95760405162461bcd60e51b815260206004820152603260248201527f4552433732313a207472616e7366657220746f206e6f6e20455243373231526560448201527131b2b4bb32b91034b6b83632b6b2b73a32b960711b606482015260840161062f565b805181602001fd5b6001600160e01b031916630a85bd0160e11b149050612b40565b506001949350505050565b6001600160a01b03821661384c5760405162461bcd60e51b815260206004820181905260248201527f4552433732313a206d696e7420746f20746865207a65726f2061646472657373604482015260640161062f565b600081815260cb60205260409020546001600160a01b0316156138b15760405162461bcd60e51b815260206004820152601c60248201527f4552433732313a20746f6b656e20616c7265616479206d696e74656400000000604482015260640161062f565b6001600160a01b038216600090815260cc602052604081208054600192906138da9084906141d7565b9091555050600081815260cb602052604080822080546001600160a01b0319166001600160a01b03861690811790915590518392907fddf252ad1be2c89b69c2b068fc378daa952ba7f163c4a11628f55a4df523b3ef908290a45050565b6040518061012001604052806009906020820280368337509192915050565b826009810192821561399f579160200282015b8281111561399f57825182546001600160a01b0319166001600160a01b0390911617825560209092019160019091019061396a565b506139ab929150613ab0565b5090565b8280546139bb90613f2b565b90600052602060002090601f0160209004810192826139dd576000855561399f565b82601f106139f657805160ff191683800117855561399f565b8280016001018555821561399f579182015b8281111561399f578251825591602001919060010190613a08565b60018301918390821561399f5791602002820160005b83821115613a7957835183826101000a81548161ffff021916908361ffff1602179055509260200192600201602081600101049283019260010302613a39565b8015613aa75782816101000a81549061ffff0219169055600201602081600101049283019260010302613a79565b50506139ab9291505b5b808211156139ab5760008155600101613ab1565b6001600160e01b03198116811461297157600080fd5b600060208284031215613aed57600080fd5b8135611c4781613ac5565b60005b83811015613b13578181015183820152602001613afb565b83811115611b265750506000910152565b60008151808452613b3c816020860160208601613af8565b601f01601f19169290920160200192915050565b602081526000611c476020830184613b24565b600060208284031215613b7557600080fd5b5035919050565b80356001600160a01b0381168114613b9357600080fd5b919050565b60008060408385031215613bab57600080fd5b613bb483613b7c565b946020939093013593505050565b600080600060608486031215613bd757600080fd5b613be084613b7c565b9250613bee60208501613b7c565b9150604084013590509250925092565b600060208284031215613c1057600080fd5b611c4782613b7c565b803560ff81168114613b9357600080fd5b80358015158114613b9357600080fd5b62ffffff8116811461297157600080fd5b60008060008060808587031215613c6157600080fd5b84359350613c7160208601613c19565b9250613c7f60408601613c2a565b91506060850135613c8f81613c3a565b939692955090935050565b634e487b7160e01b600052604160045260246000fd5b604051601f8201601f1916810167ffffffffffffffff81118282101715613cd957613cd9613c9a565b604052919050565b600067ffffffffffffffff821115613cfb57613cfb613c9a565b50601f01601f191660200190565b6000613d1c613d1784613ce1565b613cb0565b9050828152838383011115613d3057600080fd5b828260208301376000602084830101529392505050565b600060208284031215613d5957600080fd5b813567ffffffffffffffff811115613d7057600080fd5b8201601f81018413613d8157600080fd5b612b4084823560208401613d09565b60008060408385031215613da357600080fd5b613dac83613b7c565b9150613dba60208401613c2a565b90509250929050565b6101c08101818860005b6009811015613df55781516001600160a01b0316835260209283019290910190600101613dcd565b50505061ffff968716610120830152949095166101408601529115156101608501526001600160d81b03166101808401526001600160a01b03166101a090920191909152919050565b60008060008060808587031215613e5457600080fd5b613e5d85613b7c565b9350613e6b60208601613b7c565b925060408501359150606085013567ffffffffffffffff811115613e8e57600080fd5b8501601f81018713613e9f57600080fd5b613eae87823560208401613d09565b91505092959194509250565b600080600060608486031215613ecf57600080fd5b613ed884613c19565b9250613ee660208501613c2a565b91506040840135613ef681613c3a565b809150509250925092565b60008060408385031215613f1457600080fd5b613f1d83613b7c565b9150613dba60208401613b7c565b600181811c90821680613f3f57607f821691505b60208210811415613f6057634e487b7160e01b600052602260045260246000fd5b50919050565b600060208284031215613f7857600080fd5b8151611c4781613c3a565b634e487b7160e01b600052601160045260246000fd5b600060ff821660ff811415613fb057613fb0613f83565b60010192915050565b600082821015613fcb57613fcb613f83565b500390565b600061ffff80831681851681830481118215151615613ff157613ff1613f83565b02949350505050565b634e487b7160e01b600052603260045260246000fd5b600060ff821660ff84168060ff0382111561402d5761402d613f83565b019392505050565b8060005b6009811015611b265781546001600160a01b0316845260209093019260019182019101614039565b82815261024081016140766020830184614035565b600983015461ffff808216610140850152601082901c16610160840152602081901c60ff16151561018084015260281c6101a0830152600a8301546001600160a01b0381166101c084015260a081901c65ffffffffffff166101e084015260d01c60ff16610200830152600b9092015461022090910152919050565b60006020828403121561410457600080fd5b815167ffffffffffffffff81111561411b57600080fd5b8201601f8101841361412c57600080fd5b805161413a613d1782613ce1565b81815285602083850101111561414f57600080fd5b614160826020830160208601613af8565b95945050505050565b7f646174613a6170706c69636174696f6e2f6a736f6e3b6261736536342c0000008152600082516141a181601d850160208701613af8565b91909101601d0192915050565b600060ff821660ff84168160ff04811182151516156141cf576141cf613f83565b029392505050565b600082198211156141ea576141ea613f83565b500190565b634e487b7160e01b600052601260045260246000fd5b600082614214576142146141ef565b500690565b60808152600061422c6080830187613b24565b6020830195909552506040810192909252606090910152919050565b60608152600061425b6060830186613b24565b60208301949094525060400152919050565b6040815260006142806040830185613b24565b90506001600160a01b03831660208301529392505050565b6080815260006142ab6080830187613b24565b6020830195909552509115156040830152606090910152919050565b6000826142d6576142d66141ef565b500490565b60008160001904831182151516156142f5576142f5613f83565b500290565b60408152600061430d6040830185613b24565b90508260208301529392505050565b60006001600160a01b0380871683528086166020840152508360408301526080606083015261434e6080830184613b24565b9695505050505050565b60006020828403121561436a57600080fd5b8151611c4781613ac556fe6e65772067616d652073706163653a2025642c206f783a20256f2c20636f6c6f723a2025734142434445464748494a4b4c4d4e4f505152535455565758595a6162636465666768696a6b6c6d6e6f707172737475767778797a303132333435363738392b2f5b676574207370656369616c2069636f6e735d20746f6b656e49643a2025642c2073706163653a2025642c207370656369616c49636f6e3a20256420a2646970667358221220a97db9ed33a1ed76b94a6a13f6dfe5c2f0b10665bc881768fc37053af9ba3dae64736f6c634300080a0033",
  "linkReferences": {},
  "deployedLinkReferences": {}
}