{
  "_format": "hh-sol-artifact-1",
  "contractName": "OOXXNFT",
  "sourceName": "contracts/OOXXNFT.sol",
  "abi": [
    {
      "anonymous": false,
      "inputs": [
        {
          "indexed": true,
          "internalType": "address",
          "name": "owner",
          "type": "address"
        },
        {
          "indexed": true,
          "internalType": "address",
          "name": "approved",
          "type": "address"
        },
        {
          "indexed": true,
          "internalType": "uint256",
          "name": "tokenId",
          "type": "uint256"
        }
      ],
      "name": "Approval",
      "type": "event"
    },
    {
      "anonymous": false,
      "inputs": [
        {
          "indexed": true,
          "internalType": "address",
          "name": "owner",
          "type": "address"
        },
        {
          "indexed": true,
          "internalType": "address",
          "name": "operator",
          "type": "address"
        },
        {
          "indexed": false,
          "internalType": "bool",
          "name": "approved",
          "type": "bool"
        }
      ],
      "name": "ApprovalForAll",
      "type": "event"
    },
    {
      "anonymous": false,
      "inputs": [
        {
          "indexed": false,
          "internalType": "uint256",
          "name": "gameID",
          "type": "uint256"
        },
        {
          "indexed": false,
          "internalType": "string",
          "name": "info",
          "type": "string"
        },
        {
          "indexed": false,
          "internalType": "address",
          "name": "adr",
          "type": "address"
        }
      ],
      "name": "GameUpdate",
      "type": "event"
    },
    {
      "anonymous": false,
      "inputs": [
        {
          "indexed": true,
          "internalType": "address",
          "name": "previousOwner",
          "type": "address"
        },
        {
          "indexed": true,
          "internalType": "address",
          "name": "newOwner",
          "type": "address"
        }
      ],
      "name": "OwnershipTransferred",
      "type": "event"
    },
    {
      "anonymous": false,
      "inputs": [
        {
          "indexed": true,
          "internalType": "address",
          "name": "from",
          "type": "address"
        },
        {
          "indexed": true,
          "internalType": "address",
          "name": "to",
          "type": "address"
        },
        {
          "indexed": true,
          "internalType": "uint256",
          "name": "tokenId",
          "type": "uint256"
        }
      ],
      "name": "Transfer",
      "type": "event"
    },
    {
      "inputs": [
        {
          "internalType": "address",
          "name": "to",
          "type": "address"
        },
        {
          "internalType": "uint256",
          "name": "tokenId",
          "type": "uint256"
        }
      ],
      "name": "approve",
      "outputs": [],
      "stateMutability": "nonpayable",
      "type": "function"
    },
    {
      "inputs": [
        {
          "internalType": "address",
          "name": "owner",
          "type": "address"
        }
      ],
      "name": "balanceOf",
      "outputs": [
        {
          "internalType": "uint256",
          "name": "",
          "type": "uint256"
        }
      ],
      "stateMutability": "view",
      "type": "function"
    },
    {
      "inputs": [],
      "name": "contractURI",
      "outputs": [
        {
          "internalType": "string",
          "name": "",
          "type": "string"
        }
      ],
      "stateMutability": "view",
      "type": "function"
    },
    {
      "inputs": [],
      "name": "gameLen",
      "outputs": [
        {
          "internalType": "uint256",
          "name": "",
          "type": "uint256"
        }
      ],
      "stateMutability": "view",
      "type": "function"
    },
    {
      "inputs": [
        {
          "internalType": "uint256",
          "name": "tokenId",
          "type": "uint256"
        }
      ],
      "name": "getApproved",
      "outputs": [
        {
          "internalType": "address",
          "name": "",
          "type": "address"
        }
      ],
      "stateMutability": "view",
      "type": "function"
    },
    {
      "inputs": [
        {
          "internalType": "uint256",
          "name": "gameID",
          "type": "uint256"
        }
      ],
      "name": "getGame",
      "outputs": [
        {
          "internalType": "address[9]",
          "name": "",
          "type": "address[9]"
        },
        {
          "internalType": "uint16",
          "name": "",
          "type": "uint16"
        },
        {
          "internalType": "uint16",
          "name": "",
          "type": "uint16"
        },
        {
          "internalType": "bool",
          "name": "",
          "type": "bool"
        },
        {
          "internalType": "uint216",
          "name": "",
          "type": "uint216"
        },
        {
          "internalType": "address",
          "name": "",
          "type": "address"
        }
      ],
      "stateMutability": "view",
      "type": "function"
    },
    {
      "inputs": [
        {
          "internalType": "uint256",
          "name": "gameID",
          "type": "uint256"
        }
      ],
      "name": "getIsEnd",
      "outputs": [
        {
          "internalType": "bool",
          "name": "",
          "type": "bool"
        }
      ],
      "stateMutability": "view",
      "type": "function"
    },
    {
      "inputs": [
        {
          "internalType": "uint256",
          "name": "gameID",
          "type": "uint256"
        }
      ],
      "name": "getPreMark",
      "outputs": [
        {
          "internalType": "bool",
          "name": "",
          "type": "bool"
        }
      ],
      "stateMutability": "view",
      "type": "function"
    },
    {
      "inputs": [
        {
          "internalType": "address",
          "name": "adr",
          "type": "address"
        }
      ],
      "name": "initialize",
      "outputs": [],
      "stateMutability": "nonpayable",
      "type": "function"
    },
    {
      "inputs": [
        {
          "internalType": "address",
          "name": "owner",
          "type": "address"
        },
        {
          "internalType": "address",
          "name": "operator",
          "type": "address"
        }
      ],
      "name": "isApprovedForAll",
      "outputs": [
        {
          "internalType": "bool",
          "name": "",
          "type": "bool"
        }
      ],
      "stateMutability": "view",
      "type": "function"
    },
    {
      "inputs": [],
      "name": "name",
      "outputs": [
        {
          "internalType": "string",
          "name": "",
          "type": "string"
        }
      ],
      "stateMutability": "view",
      "type": "function"
    },
    {
      "inputs": [
        {
          "internalType": "uint8",
          "name": "space",
          "type": "uint8"
        },
        {
          "internalType": "bool",
          "name": "ox",
          "type": "bool"
        },
        {
          "internalType": "uint24",
          "name": "color",
          "type": "uint24"
        }
      ],
      "name": "newGame",
      "outputs": [
        {
          "internalType": "uint256",
          "name": "",
          "type": "uint256"
        }
      ],
      "stateMutability": "nonpayable",
      "type": "function"
    },
    {
      "inputs": [],
      "name": "owner",
      "outputs": [
        {
          "internalType": "address",
          "name": "",
          "type": "address"
        }
      ],
      "stateMutability": "view",
      "type": "function"
    },
    {
      "inputs": [
        {
          "internalType": "uint256",
          "name": "tokenId",
          "type": "uint256"
        }
      ],
      "name": "ownerOf",
      "outputs": [
        {
          "internalType": "address",
          "name": "",
          "type": "address"
        }
      ],
      "stateMutability": "view",
      "type": "function"
    },
    {
      "inputs": [
        {
          "internalType": "uint256",
          "name": "tokenId",
          "type": "uint256"
        },
        {
          "internalType": "uint8",
          "name": "space",
          "type": "uint8"
        },
        {
          "internalType": "bool",
          "name": "ox",
          "type": "bool"
        },
        {
          "internalType": "uint24",
          "name": "color",
          "type": "uint24"
        }
      ],
      "name": "play",
      "outputs": [],
      "stateMutability": "nonpayable",
      "type": "function"
    },
    {
      "inputs": [],
      "name": "renounceOwnership",
      "outputs": [],
      "stateMutability": "nonpayable",
      "type": "function"
    },
    {
      "inputs": [
        {
          "internalType": "address",
          "name": "from",
          "type": "address"
        },
        {
          "internalType": "address",
          "name": "to",
          "type": "address"
        },
        {
          "internalType": "uint256",
          "name": "tokenId",
          "type": "uint256"
        }
      ],
      "name": "safeTransferFrom",
      "outputs": [],
      "stateMutability": "nonpayable",
      "type": "function"
    },
    {
      "inputs": [
        {
          "internalType": "address",
          "name": "from",
          "type": "address"
        },
        {
          "internalType": "address",
          "name": "to",
          "type": "address"
        },
        {
          "internalType": "uint256",
          "name": "tokenId",
          "type": "uint256"
        },
        {
          "internalType": "bytes",
          "name": "_data",
          "type": "bytes"
        }
      ],
      "name": "safeTransferFrom",
      "outputs": [],
      "stateMutability": "nonpayable",
      "type": "function"
    },
    {
      "inputs": [
        {
          "internalType": "address",
          "name": "operator",
          "type": "address"
        },
        {
          "internalType": "bool",
          "name": "approved",
          "type": "bool"
        }
      ],
      "name": "setApprovalForAll",
      "outputs": [],
      "stateMutability": "nonpayable",
      "type": "function"
    },
    {
      "inputs": [
        {
          "internalType": "string",
          "name": "contractURI_",
          "type": "string"
        }
      ],
      "name": "setContractURI",
      "outputs": [],
      "stateMutability": "nonpayable",
      "type": "function"
    },
    {
      "inputs": [
        {
          "internalType": "address",
          "name": "adr",
          "type": "address"
        }
      ],
      "name": "setIconsContract",
      "outputs": [],
      "stateMutability": "nonpayable",
      "type": "function"
    },
    {
      "inputs": [
        {
          "internalType": "uint256",
          "name": "s",
          "type": "uint256"
        }
      ],
      "name": "setSeed",
      "outputs": [],
      "stateMutability": "nonpayable",
      "type": "function"
    },
    {
      "inputs": [
        {
          "internalType": "uint256",
          "name": "s",
          "type": "uint256"
        }
      ],
      "name": "setSeed1",
      "outputs": [],
      "stateMutability": "nonpayable",
      "type": "function"
    },
    {
      "inputs": [
        {
          "internalType": "uint256",
          "name": "s",
          "type": "uint256"
        }
      ],
      "name": "setSeed2",
      "outputs": [],
      "stateMutability": "nonpayable",
      "type": "function"
    },
    {
      "inputs": [
        {
          "internalType": "uint256",
          "name": "specialIconsCreatorAdd_",
          "type": "uint256"
        }
      ],
      "name": "setSpecialIconsCreatorAdd",
      "outputs": [],
      "stateMutability": "nonpayable",
      "type": "function"
    },
    {
      "inputs": [
        {
          "internalType": "uint256",
          "name": "specialIconsProbability_",
          "type": "uint256"
        }
      ],
      "name": "setSpecialIconsProbability",
      "outputs": [],
      "stateMutability": "nonpayable",
      "type": "function"
    },
    {
      "inputs": [
        {
          "internalType": "bytes4",
          "name": "interfaceId",
          "type": "bytes4"
        }
      ],
      "name": "supportsInterface",
      "outputs": [
        {
          "internalType": "bool",
          "name": "",
          "type": "bool"
        }
      ],
      "stateMutability": "view",
      "type": "function"
    },
    {
      "inputs": [],
      "name": "symbol",
      "outputs": [
        {
          "internalType": "string",
          "name": "",
          "type": "string"
        }
      ],
      "stateMutability": "view",
      "type": "function"
    },
    {
      "inputs": [
        {
          "internalType": "uint256",
          "name": "tokenId",
          "type": "uint256"
        }
      ],
      "name": "tokenURI",
      "outputs": [
        {
          "internalType": "string",
          "name": "",
          "type": "string"
        }
      ],
      "stateMutability": "view",
      "type": "function"
    },
    {
      "inputs": [
        {
          "internalType": "address",
          "name": "from",
          "type": "address"
        },
        {
          "internalType": "address",
          "name": "to",
          "type": "address"
        },
        {
          "internalType": "uint256",
          "name": "tokenId",
          "type": "uint256"
        }
      ],
      "name": "transferFrom",
      "outputs": [],
      "stateMutability": "nonpayable",
      "type": "function"
    },
    {
      "inputs": [
        {
          "internalType": "address",
          "name": "newOwner",
          "type": "address"
        }
      ],
      "name": "transferOwnership",
      "outputs": [],
      "stateMutability": "nonpayable",
      "type": "function"
    }
  ],
  "bytecode": "0x608060405234801561001057600080fd5b5061384f806100206000396000f3fe608060405234801561001057600080fd5b50600436106101e55760003560e01c80638da5cb5b1161010f578063c74abf48116100a2578063dba2132111610071578063dba2132114610419578063e8a3d4851461042c578063e985e9c514610434578063f2fde38b1461047057600080fd5b8063c74abf48146103d8578063c87b56dd146103eb578063d0e9b112146103fe578063d70d49331461041157600080fd5b8063a2f77bcc116100de578063a2f77bcc1461037a578063b88d4fde1461039f578063c32a50f9146103b2578063c4d66de8146103c557600080fd5b80638da5cb5b1461033b578063938e3d7b1461034c57806395d89b411461035f578063a22cb4651461036757600080fd5b806342842e0e11610187578063705dd42311610156578063705dd423146102ec57806370a08231146102ff578063715018a6146103205780637fa98ca51461032857600080fd5b806342842e0e146102a05780634c10fd16146102b35780636352211e146102c65780636cf7b793146102d957600080fd5b806308cd521e116101c357806308cd521e14610252578063095ea7b31461026757806323b872dd1461027a57806330bbf0d71461028d57600080fd5b806301ffc9a7146101ea57806306fdde0314610212578063081812fc14610227575b600080fd5b6101fd6101f8366004613039565b610483565b60405190151581526020015b60405180910390f35b61021a610520565b60405161020991906130ae565b61023a6102353660046130c1565b6105b2565b6040516001600160a01b039091168152602001610209565b6102656102603660046130c1565b61064c565b005b6102656102753660046130f6565b610702565b610265610288366004613120565b610834565b61026561029b3660046130c1565b6108bb565b6102656102ae366004613120565b610976565b6102656102c136600461315c565b610991565b61023a6102d43660046130c1565b610a6a565b6102656102e73660046131a9565b610af5565b6101fd6102fa3660046130c1565b6111d3565b61031261030d36600461315c565b6112f5565b604051908152602001610209565b61026561138f565b6102656103363660046130c1565b6113f5565b6065546001600160a01b031661023a565b61026561035a3660046132a5565b6114ac565b61021a61157a565b6102656103753660046132ee565b611589565b61038d6103883660046130c1565b611598565b60405161020996959493929190613321565b6102656103ad36600461339c565b6116e2565b6102656103c03660046130c1565b61176a565b6102656103d336600461315c565b611825565b6103126103e6366004613418565b6119dd565b61021a6103f93660046130c1565b611d16565b61026561040c3660046130c1565b611db4565b60fb54610312565b6101fd6104273660046130c1565b611e6f565b61021a611f6f565b6101fd61044236600461345f565b6001600160a01b03918216600090815260ce6020908152604080832093909416825291909152205460ff1690565b61026561047e36600461315c565b612029565b60006001600160e01b031982167f80ac58cd0000000000000000000000000000000000000000000000000000000014806104e657506001600160e01b031982167f5b5e139f00000000000000000000000000000000000000000000000000000000145b8061051a57507f01ffc9a7000000000000000000000000000000000000000000000000000000006001600160e01b03198316145b92915050565b606060c9805461052f90613489565b80601f016020809104026020016040519081016040528092919081815260200182805461055b90613489565b80156105a85780601f1061057d576101008083540402835291602001916105a8565b820191906000526020600020905b81548152906001019060200180831161058b57829003601f168201915b5050505050905090565b600081815260cb60205260408120546001600160a01b03166106305760405162461bcd60e51b815260206004820152602c60248201527f4552433732313a20617070726f76656420717565727920666f72206e6f6e657860448201526b34b9ba32b73a103a37b5b2b760a11b60648201526084015b60405180910390fd5b50600090815260cd60205260409020546001600160a01b031690565b6065546001600160a01b031633146106a65760405162461bcd60e51b815260206004820181905260248201527f4f776e61626c653a2063616c6c6572206973206e6f7420746865206f776e65726044820152606401610627565b600260015414156106f95760405162461bcd60e51b815260206004820152601f60248201527f5265656e7472616e637947756172643a207265656e7472616e742063616c6c006044820152606401610627565b60ff5560018055565b600061070d82610a6a565b9050806001600160a01b0316836001600160a01b031614156107975760405162461bcd60e51b815260206004820152602160248201527f4552433732313a20617070726f76616c20746f2063757272656e74206f776e6560448201527f72000000000000000000000000000000000000000000000000000000000000006064820152608401610627565b336001600160a01b03821614806107b357506107b38133610442565b6108255760405162461bcd60e51b815260206004820152603860248201527f4552433732313a20617070726f76652063616c6c6572206973206e6f74206f7760448201527f6e6572206e6f7220617070726f76656420666f7220616c6c00000000000000006064820152608401610627565b61082f838361210b565b505050565b61083e3382612179565b6108b05760405162461bcd60e51b815260206004820152603160248201527f4552433732313a207472616e736665722063616c6c6572206973206e6f74206f60448201527f776e6572206e6f7220617070726f7665640000000000000000000000000000006064820152608401610627565b61082f838383612270565b6002600154141561090e5760405162461bcd60e51b815260206004820152601f60248201527f5265656e7472616e637947756172643a207265656e7472616e742063616c6c006044820152606401610627565b60026001556065546001600160a01b0316331461096d5760405162461bcd60e51b815260206004820181905260248201527f4f776e61626c653a2063616c6c6572206973206e6f7420746865206f776e65726044820152606401610627565b60fd5560018055565b61082f838383604051806020016040528060008152506116e2565b600260015414156109e45760405162461bcd60e51b815260206004820152601f60248201527f5265656e7472616e637947756172643a207265656e7472616e742063616c6c006044820152606401610627565b60026001556065546001600160a01b03163314610a435760405162461bcd60e51b815260206004820181905260248201527f4f776e61626c653a2063616c6c6572206973206e6f7420746865206f776e65726044820152606401610627565b61010180546001600160a01b0319166001600160a01b039290921691909117905560018055565b600081815260cb60205260408120546001600160a01b03168061051a5760405162461bcd60e51b815260206004820152602960248201527f4552433732313a206f776e657220717565727920666f72206e6f6e657869737460448201527f656e7420746f6b656e00000000000000000000000000000000000000000000006064820152608401610627565b60fb548410610b465760405162461bcd60e51b815260206004820152601260248201527f746f6b656e496420697320696e76616c696400000000000000000000000000006044820152606401610627565b600060fb8581548110610b5b57610b5b6134c4565b600091825260208220600c9091020191508160ff861660098110610b8157610b816134c4565b01546001600160a01b031614610bd95760405162461bcd60e51b815260206004820152601360248201527f746865207370616365207761732074616b656e000000000000000000000000006044820152606401610627565b600981015460ff6401000000009091041615158315151415610c3d5760405162461bcd60e51b815260206004820152600c60248201527f696e76616c6964206d61726b00000000000000000000000000000000000000006044820152606401610627565b600a8101546001600160a01b031615610c985760405162461bcd60e51b815260206004820152601060248201527f7468652067616d652077617320656e64000000000000000000000000000000006044820152606401610627565b600a8101546009600160d01b90910460ff1610610cf75760405162461bcd60e51b815260206004820152601060248201527f7468652067616d652077617320656e64000000000000000000000000000000006044820152606401610627565b338160ff861660098110610d0d57610d0d6134c4565b0180546001600160a01b0319166001600160a01b03929092169190911790558215610d5857600981018054600160ff87161b61ffff9081169082161761ffff19909116179055610d85565b600981018054600160ff87161b61ffff9081166201000080840492909216170263ffff0000199091161790555b60098101805464ff00000000191664010000000085151502179055600a810154610dca90600160a01b810465ffffffffffff169060ff600160d01b909104168661243d565b600a8201805465ffffffffffff92909216600160a01b027fffffffffffff000000000000ffffffffffffffffffffffffffffffffffffffff9092169190911790556009810154610e33906001600160d81b0365010000000000909104168562ffffff851661245d565b6009820180546001600160d81b0392909216650100000000000264ffffffffff909216919091179055600a810154610e779060ff600160d01b9091041660016134f0565b81600a01601a6101000a81548160ff021916908360ff1602179055506000610e9f606461248f565b905060ff54811015610f365761010154604051630c08f1b760e31b815260ff871660048201526000916001600160a01b0316906360478db8906024016020604051808303816000875af1158015610efa573d6000803e3d6000fd5b505050506040513d601f19601f82011682018060405250810190610f1e9190613515565b9050610f2f83600b01548783612562565b600b840155505b600a8201546005600160d01b90910460ff161061117457600084610f6857600983015462010000900461ffff16610f72565b600983015461ffff165b9050610f7d81612585565b1561100357600a830180546001600160a01b03191633908117909155610fa3908861262b565b6040805188815260606020820181905260039082015262195b9960ea1b608082015233918101919091527fa3af8a4d60e03eb2a40758af7b71b6e1bf7821246030c895218b2ca5caaccfdf9060a0015b60405180910390a15050506111cd565b600a8301546009600160d01b90910460ff161061111d576000611026600b61248f565b9050600981101561105c57611057848260098110611046576110466134c4565b01546001600160a01b03168961262b565b6110c1565b82600914156110b757600a84015460009061108690600160a01b900465ffffffffffff1682612645565b90506110b18560ff8316600981106110a0576110a06134c4565b01546001600160a01b03168a61262b565b506110c1565b6110c1338961262b565b6040805189815260606020820181905260039082015262195b9960ea1b6080820152338183015290517fa3af8a4d60e03eb2a40758af7b71b6e1bf7821246030c895218b2ca5caaccfdf9181900360a00190a1505050506111cd565b604080518881526060602082018190526006908201526575706461746560d01b608082015233918101919091527fa3af8a4d60e03eb2a40758af7b71b6e1bf7821246030c895218b2ca5caaccfdf9060a001610ff3565b604080518781526060602082018190526006908201526575706461746560d01b6080820152338183015290517fa3af8a4d60e03eb2a40758af7b71b6e1bf7821246030c895218b2ca5caaccfdf9181900360a00190a150505b50505050565b60008060fb83815481106111e9576111e96134c4565b6000918252602090912060408051610240810190915291600c02018161012081018260098282826020028201915b81546001600160a01b03168152600190910190602001808311611217575050509183525050600982015461ffff8082166020840152620100008204166040830152640100000000810460ff90811615156060840152650100000000009091046001600160d81b03166080830152600a8301546001600160a01b0380821660a080860191909152600160a01b830465ffffffffffff1660c0860152600160d01b90920490921660e0840152600b909301546101009092019190915290820151919250161515806112ee575060098160e0015160ff1610155b9392505050565b60006001600160a01b0382166113735760405162461bcd60e51b815260206004820152602a60248201527f4552433732313a2062616c616e636520717565727920666f7220746865207a6560448201527f726f2061646472657373000000000000000000000000000000000000000000006064820152608401610627565b506001600160a01b0316600090815260cc602052604090205490565b6065546001600160a01b031633146113e95760405162461bcd60e51b815260206004820181905260248201527f4f776e61626c653a2063616c6c6572206973206e6f7420746865206f776e65726044820152606401610627565b6113f3600061266b565b565b6065546001600160a01b0316331461144f5760405162461bcd60e51b815260206004820181905260248201527f4f776e61626c653a2063616c6c6572206973206e6f7420746865206f776e65726044820152606401610627565b600260015414156114a25760405162461bcd60e51b815260206004820152601f60248201527f5265656e7472616e637947756172643a207265656e7472616e742063616c6c006044820152606401610627565b6101005560018055565b6065546001600160a01b031633146115065760405162461bcd60e51b815260206004820181905260248201527f4f776e61626c653a2063616c6c6572206973206e6f7420746865206f776e65726044820152606401610627565b600260015414156115595760405162461bcd60e51b815260206004820152601f60248201527f5265656e7472616e637947756172643a207265656e7472616e742063616c6c006044820152606401610627565b6002600155805161157290610102906020840190612e92565b505060018055565b606060ca805461052f90613489565b6115943383836126bd565b5050565b6115a0612f16565b60008060008060008060fb88815481106115bc576115bc6134c4565b6000918252602090912060408051610240810190915291600c02018161012081018260098282826020028201915b81546001600160a01b031681526001909101906020018083116115ea575050509183525050600982015461ffff808216602080850191909152620100008304909116604080850191909152640100000000830460ff9081161515606080870191909152650100000000009094046001600160d81b0316608080870191909152600a8701546001600160a01b03811660a080890191909152600160a01b820465ffffffffffff1660c0890152600160d01b90910490921660e0870152600b90960154610100909501949094528551918601519086015192860151948601519590930151909d929c50909a50919850919650945092505050565b6116ec3383612179565b61175e5760405162461bcd60e51b815260206004820152603160248201527f4552433732313a207472616e736665722063616c6c6572206973206e6f74206f60448201527f776e6572206e6f7220617070726f7665640000000000000000000000000000006064820152608401610627565b6111cd8484848461278c565b600260015414156117bd5760405162461bcd60e51b815260206004820152601f60248201527f5265656e7472616e637947756172643a207265656e7472616e742063616c6c006044820152606401610627565b60026001556065546001600160a01b0316331461181c5760405162461bcd60e51b815260206004820181905260248201527f4f776e61626c653a2063616c6c6572206973206e6f7420746865206f776e65726044820152606401610627565b60fc5560018055565b600054610100900460ff166118405760005460ff1615611844565b303b155b6118b65760405162461bcd60e51b815260206004820152602e60248201527f496e697469616c697a61626c653a20636f6e747261637420697320616c72656160448201527f647920696e697469616c697a65640000000000000000000000000000000000006064820152608401610627565b600054610100900460ff161580156118d8576000805461ffff19166101011790555b6118e061280a565b6119286040518060400160405280600781526020016613d3d61613919560ca1b8152506040518060400160405280600781526020016613d3d61613919560ca1b815250612875565b611930612907565b61193861297b565b622d89e060fc55634864e5c360fd5563036089ef60fe55600a60ff55600561010090815560408051918201815260078252603860208301526101c090820152610124606082015260926080820152604960a082015261011160c0820152605460e08201526119ab90610103906008612f35565b5061010180546001600160a01b0319166001600160a01b0384161790558015611594576000805461ff00191690555050565b60006119e7612f16565b33818660ff16600981106119fd576119fd6134c4565b6001600160a01b0390921660209290920201526000808515611a2957600160ff88161b82179150611a32565b600160ff88161b175b600080611a3f606461248f565b90506101005460ff54611a529190613532565b811015611add5761010154604051630c08f1b760e31b815260ff8b1660048201526000916001600160a01b0316906360478db8906024016020604051808303816000875af1158015611aa8573d6000803e3d6000fd5b505050506040513d601f19601f82011682018060405250810190611acc9190613515565b9050611ad9838b83612562565b9250505b60fb6040518061012001604052808781526020018661ffff1681526020018561ffff1681526020018a15158152602001611b1e60008d8c62ffffff1661245d565b6001600160d81b031681526000602080830182905260ff8e1660408401526001606084018190526080909301879052845492830185559381529290922081519192600c020190611b719082906009612fc6565b5060208201516009820180546040850151606086015160808701516001600160d81b0316650100000000000264ffffffffff911515640100000000029190911663ffffffff61ffff938416620100000263ffffffff19909516939096169290921792909217939093169290921791909117905560a0820151600a8201805460c085015160e086015160ff16600160d01b027fffffffffff00ffffffffffffffffffffffffffffffffffffffffffffffffffff65ffffffffffff909216600160a01b027fffffffffffff00000000000000000000000000000000000000000000000000009093166001600160a01b0390951694909417919091171691909117905561010090910151600b9091015560fb547fa3af8a4d60e03eb2a40758af7b71b6e1bf7821246030c895218b2ca5caaccfdf90611caf9060019061354a565b604080519182526060602083018190526006908301527f637265617465000000000000000000000000000000000000000000000000000060808301523382820152519081900360a00190a160fb54611d099060019061354a565b9998505050505050505050565b6101015460fb80546060926001600160a01b0316916360a58d069185919082908110611d4457611d446134c4565b90600052602060002090600c02016040518363ffffffff1660e01b8152600401611d6f92919061358d565b600060405180830381865afa158015611d8c573d6000803e3d6000fd5b505050506040513d6000823e601f3d908101601f1916820160405261051a919081019061361e565b60026001541415611e075760405162461bcd60e51b815260206004820152601f60248201527f5265656e7472616e637947756172643a207265656e7472616e742063616c6c006044820152606401610627565b60026001556065546001600160a01b03163314611e665760405162461bcd60e51b815260206004820181905260248201527f4f776e61626c653a2063616c6c6572206973206e6f7420746865206f776e65726044820152606401610627565b60fe5560018055565b60008060fb8381548110611e8557611e856134c4565b6000918252602090912060408051610240810190915291600c02018161012081018260098282826020028201915b81546001600160a01b03168152600190910190602001808311611eb3575050509183525050600982015461ffff8082166020840152620100008204166040830152640100000000810460ff9081161515606080850191909152650100000000009092046001600160d81b03166080840152600a8401546001600160a01b03811660a0850152600160a01b810465ffffffffffff1660c0850152600160d01b90041660e0830152600b909201546101009091015201519392505050565b60606120056101028054611f8290613489565b80601f0160208091040260200160405190810160405280929190818152602001828054611fae90613489565b8015611ffb5780601f10611fd057610100808354040283529160200191611ffb565b820191906000526020600020905b815481529060010190602001808311611fde57829003601f168201915b50505050506129ec565b6040516020016120159190613695565b604051602081830303815290604052905090565b6065546001600160a01b031633146120835760405162461bcd60e51b815260206004820181905260248201527f4f776e61626c653a2063616c6c6572206973206e6f7420746865206f776e65726044820152606401610627565b6001600160a01b0381166120ff5760405162461bcd60e51b815260206004820152602660248201527f4f776e61626c653a206e6577206f776e657220697320746865207a65726f206160448201527f64647265737300000000000000000000000000000000000000000000000000006064820152608401610627565b6121088161266b565b50565b600081815260cd6020526040902080546001600160a01b0319166001600160a01b038416908117909155819061214082610a6a565b6001600160a01b03167f8c5be1e5ebec7d5bd14f71427d1e84f3dd0314c0f7b2291e5b200ac8c7c3b92560405160405180910390a45050565b600081815260cb60205260408120546001600160a01b03166121f25760405162461bcd60e51b815260206004820152602c60248201527f4552433732313a206f70657261746f7220717565727920666f72206e6f6e657860448201526b34b9ba32b73a103a37b5b2b760a11b6064820152608401610627565b60006121fd83610a6a565b9050806001600160a01b0316846001600160a01b031614806122385750836001600160a01b031661222d846105b2565b6001600160a01b0316145b8061226857506001600160a01b03808216600090815260ce602090815260408083209388168352929052205460ff165b949350505050565b826001600160a01b031661228382610a6a565b6001600160a01b0316146122ff5760405162461bcd60e51b815260206004820152602560248201527f4552433732313a207472616e736665722066726f6d20696e636f72726563742060448201527f6f776e65720000000000000000000000000000000000000000000000000000006064820152608401610627565b6001600160a01b03821661237a5760405162461bcd60e51b8152602060048201526024808201527f4552433732313a207472616e7366657220746f20746865207a65726f2061646460448201527f72657373000000000000000000000000000000000000000000000000000000006064820152608401610627565b61238560008261210b565b6001600160a01b038316600090815260cc602052604081208054600192906123ae90849061354a565b90915550506001600160a01b038216600090815260cc602052604081208054600192906123dc908490613532565b9091555050600081815260cb602052604080822080546001600160a01b0319166001600160a01b0386811691821790925591518493918716917fddf252ad1be2c89b69c2b068fc378daa952ba7f163c4a11628f55a4df523b3ef91a4505050565b600061244a8360046136da565b60ff83811691161b841790509392505050565b600061246a8360186136da565b60ff168268ffffffffffffffffff166001600160d81b0316901b841790509392505050565b60008061249d600343613719565b90506000816124af575060fc546124cf565b81600114156124c1575060fd546124cf565b81600214156124cf575060fe545b43813360fb546040805160208101959095528401929092526bffffffffffffffffffffffff19606091821b1690830152486074830152609482015260b40160408051601f1981840301815291905280516020909101209050816125365760fc819055612558565b81600114156125495760fd819055612558565b81600214156125585760fe8190555b6122688482613719565b600061256f8360186136da565b60ff168262ffffff16901b841790509392505050565b6000805b60088160ff161015612622576101038160ff16600881106125ac576125ac6134c4565b601091828204019190066002029054906101000a900461ffff1661ffff166101038260ff16600881106125e1576125e16134c4565b601091828204019190066002029054906101000a900461ffff16841661ffff1614156126105750600192915050565b8061261a8161372d565b915050612589565b50600092915050565b611594828260405180602001604052806000815250612b89565b60006126528260046136da565b60ff168365ffffffffffff16901c600f16905092915050565b606580546001600160a01b038381166001600160a01b0319831681179093556040519116919082907f8be0079c531659141344cd1fd0a4f28419497f9722a3daafe3b4186f6b6457e090600090a35050565b816001600160a01b0316836001600160a01b0316141561271f5760405162461bcd60e51b815260206004820152601960248201527f4552433732313a20617070726f766520746f2063616c6c6572000000000000006044820152606401610627565b6001600160a01b03838116600081815260ce6020908152604080832094871680845294825291829020805460ff191686151590811790915591519182527f17307eab39ab6107e8899845ad3d59bd9653f200f220920489ca2b5937696c31910160405180910390a3505050565b612797848484612270565b6127a384848484612c07565b6111cd5760405162461bcd60e51b815260206004820152603260248201527f4552433732313a207472616e7366657220746f206e6f6e20455243373231526560448201527131b2b4bb32b91034b6b83632b6b2b73a32b960711b6064820152608401610627565b600054610100900460ff166113f35760405162461bcd60e51b815260206004820152602b60248201527f496e697469616c697a61626c653a20636f6e7472616374206973206e6f74206960448201526a6e697469616c697a696e6760a81b6064820152608401610627565b600054610100900460ff166128e05760405162461bcd60e51b815260206004820152602b60248201527f496e697469616c697a61626c653a20636f6e7472616374206973206e6f74206960448201526a6e697469616c697a696e6760a81b6064820152608401610627565b81516128f39060c9906020850190612e92565b50805161082f9060ca906020840190612e92565b600054610100900460ff166129725760405162461bcd60e51b815260206004820152602b60248201527f496e697469616c697a61626c653a20636f6e7472616374206973206e6f74206960448201526a6e697469616c697a696e6760a81b6064820152608401610627565b6113f33361266b565b600054610100900460ff166129e65760405162461bcd60e51b815260206004820152602b60248201527f496e697469616c697a61626c653a20636f6e7472616374206973206e6f74206960448201526a6e697469616c697a696e6760a81b6064820152608401610627565b60018055565b805160609080612a0c575050604080516020810190915260008152919050565b60006003612a1b836002613532565b612a25919061374d565b612a30906004613761565b90506000612a3f826020613532565b67ffffffffffffffff811115612a5757612a576131f8565b6040519080825280601f01601f191660200182016040528015612a81576020820181803683370190505b50905060006040518060600160405280604081526020016137da604091399050600181016020830160005b86811015612b0d576003818a01810151603f601282901c8116860151600c83901c8216870151600684901c831688015192909316870151600891821b60ff94851601821b92841692909201901b91160160e01b835260049092019101612aac565b506003860660018114612b275760028114612b5357612b7b565b7f3d3d000000000000000000000000000000000000000000000000000000000000600119830152612b7b565b7f3d000000000000000000000000000000000000000000000000000000000000006000198301525b505050918152949350505050565b612b938383612d50565b612ba06000848484612c07565b61082f5760405162461bcd60e51b815260206004820152603260248201527f4552433732313a207472616e7366657220746f206e6f6e20455243373231526560448201527131b2b4bb32b91034b6b83632b6b2b73a32b960711b6064820152608401610627565b60006001600160a01b0384163b15612d4557604051630a85bd0160e11b81526001600160a01b0385169063150b7a0290612c4b903390899088908890600401613780565b6020604051808303816000875af1925050508015612c86575060408051601f3d908101601f19168201909252612c83918101906137bc565b60015b612d2b573d808015612cb4576040519150601f19603f3d011682016040523d82523d6000602084013e612cb9565b606091505b508051612d235760405162461bcd60e51b815260206004820152603260248201527f4552433732313a207472616e7366657220746f206e6f6e20455243373231526560448201527131b2b4bb32b91034b6b83632b6b2b73a32b960711b6064820152608401610627565b805181602001fd5b6001600160e01b031916630a85bd0160e11b149050612268565b506001949350505050565b6001600160a01b038216612da65760405162461bcd60e51b815260206004820181905260248201527f4552433732313a206d696e7420746f20746865207a65726f20616464726573736044820152606401610627565b600081815260cb60205260409020546001600160a01b031615612e0b5760405162461bcd60e51b815260206004820152601c60248201527f4552433732313a20746f6b656e20616c7265616479206d696e746564000000006044820152606401610627565b6001600160a01b038216600090815260cc60205260408120805460019290612e34908490613532565b9091555050600081815260cb602052604080822080546001600160a01b0319166001600160a01b03861690811790915590518392907fddf252ad1be2c89b69c2b068fc378daa952ba7f163c4a11628f55a4df523b3ef908290a45050565b828054612e9e90613489565b90600052602060002090601f016020900481019282612ec05760008555612f06565b82601f10612ed957805160ff1916838001178555612f06565b82800160010185558215612f06579182015b82811115612f06578251825591602001919060010190612eeb565b50612f1292915061300e565b5090565b6040518061012001604052806009906020820280368337509192915050565b600183019183908215612f065791602002820160005b83821115612f8b57835183826101000a81548161ffff021916908361ffff1602179055509260200192600201602081600101049283019260010302612f4b565b8015612fb95782816101000a81549061ffff0219169055600201602081600101049283019260010302612f8b565b5050612f1292915061300e565b8260098101928215612f06579160200282015b82811115612f0657825182546001600160a01b0319166001600160a01b03909116178255602090920191600190910190612fd9565b5b80821115612f12576000815560010161300f565b6001600160e01b03198116811461210857600080fd5b60006020828403121561304b57600080fd5b81356112ee81613023565b60005b83811015613071578181015183820152602001613059565b838111156111cd5750506000910152565b6000815180845261309a816020860160208601613056565b601f01601f19169290920160200192915050565b6020815260006112ee6020830184613082565b6000602082840312156130d357600080fd5b5035919050565b80356001600160a01b03811681146130f157600080fd5b919050565b6000806040838503121561310957600080fd5b613112836130da565b946020939093013593505050565b60008060006060848603121561313557600080fd5b61313e846130da565b925061314c602085016130da565b9150604084013590509250925092565b60006020828403121561316e57600080fd5b6112ee826130da565b803560ff811681146130f157600080fd5b803580151581146130f157600080fd5b62ffffff8116811461210857600080fd5b600080600080608085870312156131bf57600080fd5b843593506131cf60208601613177565b92506131dd60408601613188565b915060608501356131ed81613198565b939692955090935050565b634e487b7160e01b600052604160045260246000fd5b604051601f8201601f1916810167ffffffffffffffff81118282101715613237576132376131f8565b604052919050565b600067ffffffffffffffff821115613259576132596131f8565b50601f01601f191660200190565b600061327a6132758461323f565b61320e565b905082815283838301111561328e57600080fd5b828260208301376000602084830101529392505050565b6000602082840312156132b757600080fd5b813567ffffffffffffffff8111156132ce57600080fd5b8201601f810184136132df57600080fd5b61226884823560208401613267565b6000806040838503121561330157600080fd5b61330a836130da565b915061331860208401613188565b90509250929050565b6101c08101818860005b60098110156133535781516001600160a01b031683526020928301929091019060010161332b565b50505061ffff968716610120830152949095166101408601529115156101608501526001600160d81b03166101808401526001600160a01b03166101a090920191909152919050565b600080600080608085870312156133b257600080fd5b6133bb856130da565b93506133c9602086016130da565b925060408501359150606085013567ffffffffffffffff8111156133ec57600080fd5b8501601f810187136133fd57600080fd5b61340c87823560208401613267565b91505092959194509250565b60008060006060848603121561342d57600080fd5b61343684613177565b925061344460208501613188565b9150604084013561345481613198565b809150509250925092565b6000806040838503121561347257600080fd5b61347b836130da565b9150613318602084016130da565b600181811c9082168061349d57607f821691505b602082108114156134be57634e487b7160e01b600052602260045260246000fd5b50919050565b634e487b7160e01b600052603260045260246000fd5b634e487b7160e01b600052601160045260246000fd5b600060ff821660ff84168060ff0382111561350d5761350d6134da565b019392505050565b60006020828403121561352757600080fd5b81516112ee81613198565b60008219821115613545576135456134da565b500190565b60008282101561355c5761355c6134da565b500390565b8060005b60098110156111cd5781546001600160a01b0316845260209093019260019182019101613565565b82815261024081016135a26020830184613561565b600983015461ffff808216610140850152601082901c16610160840152602081901c60ff16151561018084015260281c6101a0830152600a8301546001600160a01b0381166101c084015260a081901c65ffffffffffff166101e084015260d01c60ff16610200830152600b9092015461022090910152919050565b60006020828403121561363057600080fd5b815167ffffffffffffffff81111561364757600080fd5b8201601f8101841361365857600080fd5b80516136666132758261323f565b81815285602083850101111561367b57600080fd5b61368c826020830160208601613056565b95945050505050565b7f646174613a6170706c69636174696f6e2f6a736f6e3b6261736536342c0000008152600082516136cd81601d850160208701613056565b91909101601d0192915050565b600060ff821660ff84168160ff04811182151516156136fb576136fb6134da565b029392505050565b634e487b7160e01b600052601260045260246000fd5b60008261372857613728613703565b500690565b600060ff821660ff811415613744576137446134da565b60010192915050565b60008261375c5761375c613703565b500490565b600081600019048311821515161561377b5761377b6134da565b500290565b60006001600160a01b038087168352808616602084015250836040830152608060608301526137b26080830184613082565b9695505050505050565b6000602082840312156137ce57600080fd5b81516112ee8161302356fe4142434445464748494a4b4c4d4e4f505152535455565758595a6162636465666768696a6b6c6d6e6f707172737475767778797a303132333435363738392b2fa264697066735822122039efe741cc57e53bb048c996a25da6a90467a019aa03bbdb7a3602370650fa3c64736f6c634300080a0033",
  "linkReferences": {},
  "deployedLinkReferences": {}
}